:020000040800F2
:10000000000002209D270008A3060008A90600089A
:10001000AF060008B5060008BB0600080000000097
:10002000000000000000000000000000C106000801
:10003000CF06000800000000DD060008EB060008FF
:10004000ED270008ED270008ED270008ED27000840
:10005000ED270008ED270008ED270008ED27000830
:10006000ED270008ED270008ED270008ED27000820
:10007000ED270008ED270008ED270008ED27000810
:10008000ED270008ED270008ED270008000000001C
:10009000000000000000000000000000ED27000844
:1000A000ED270008ED270008ED270008ED270008E0
:1000B000ED270008ED270008F9060008ED270008E5
:1000C000ED270008ED270008ED270008ED270008C0
:1000D000ED270008ED270008ED27000800000000CC
:1000E000ED270008ED270008ED27000800000000BC
:1000F000000000000000000000000000ED270008E4
:1001000000000000ED270008ED270008ED2700089B
:1001100000000000000000000000000000000000DF
:10012000ED270008ED270008ED270008ED2700085F
:10013000ED270008000000000000000000000000A3
:10014000000000000000000000000000ED27000893
:10015000ED270008ED270008ED270008ED2700082F
:10016000ED270008ED270008000000000000000057
:10017000000000000000000000000000000000007F
:1001800000000000ED270008000000000000000053
:08019000ED270008ED2700082F
:1001980053B94AB9002908BF00281CBF4FF0FF31E6
:1001A8004FF0FF3000F00CB8ADF1080C6DE904CE4B
:1001B80002F046FBDDF804E0DDE9022304B07047F5
:1001C800704700BF0348044B834202D0034B03B17E
:1001D800184770470C0000200C00002000000000A9
:1001E8000548064B1B1AD90F01EBA301491002D091
:1001F800034B03B1184770470C0000200C00002087
:100208000000000010B5064C237843B9FFF7DAFF69
:10021800044B13B10448AFF300800123237010BDD1
:100228000C00002000000000102B000808B5054B4A
:100238001BB105490548AFF30080BDE80840FFF74A
:10024800CFBF00BF0000000010000020102B0008E6
:1002580080B500AF01F004FE00F016F800F01EF9BA
:1002680000F0CEF800F07AF8054800F02FFB0548BA
:1002780001F0E2FE4FF4FA7001F064FEFAE700BF05
:10028800740000202C00002080B594B000AF07F166
:10029800200330220021184602F0A5FA07F10C03CA
:1002A80000221A605A609A60DA601A610023BB6003
:1002B800284B1B6C274A43F080531364254B1B6C57
:1002C80003F08053BB60BB6800237B60224B1B6834
:1002D800214A43F4404313601F4B1B6803F4404317
:1002E8007B607B6801233B624FF480337B6202238F
:1002F800BB634FF48003FB6319233B64C0237B6417
:100308000223BB640423FB6407F12003184600F0B2
:10031800D3FE0346002B01D000F0BAF90F23FB608F
:1003280002233B6100237B614FF48053BB614FF490
:10033800E053FB6107F10C030321184601F034F97F
:100348000346002B01D000F0A3F900BF5037BD468B
:1003580080BD00BF003802400070004080B584B006
:1003680000AF3B4600221A605A609A60DA60214B5F
:10037800214A1A601F4B00225A601E4B00229A60C5
:100388001C4B00221A611B4B00221A76194B0022C3
:1003980083F82020174B0022DA62164B174A9A621C
:1003A800144B0022DA60134B0122DA61114B002250
:1003B80083F830200F4B01225A610E4801F0F8FDF6
:1003C8000346002B01D000F063F901233B600123B1
:1003D8007B600023BB603B461946064801F0ACFF32
:1003E8000346002B01D000F053F900BF1037BD467B
:1003F80080BD00BF2C000020002001400100000F3C
:1004080080B586B000AF07F1080300221A605A6071
:100418009A60DA603B4600221A605A601D4B1E4AF9
:100428001A601C4B42F27F525A601A4B00229A60A3
:10043800184B1422DA60174B00221A61154B002260
:100448009A61144800F0F2F90346002B01D000F03D
:100458001FF94FF48053BB6007F1080319460D4894
:1004680000F09EFB0346002B01D000F011F9002399
:100478003B6000237B603B461946064800F09AFD26
:100488000346002B01D000F003F900BF1837BD4622
:1004980080BD00BF740000200008004080B58AB00D
:1004A80000AF07F1140300221A605A609A60DA60FC
:1004B8001A6100233B613C4B1B6B3B4A43F004032E
:1004C8001363394B1B6B03F004033B613B69002347
:1004D800FB60354B1B6B344A43F080031363324B8C
:1004E8001B6B03F08003FB60FB680023BB602E4B93
:1004F8001B6B2D4A43F0010313632B4B1B6B03F05B
:100508000103BB60BB6800237B60274B1B6B264A3B
:1005180043F002031363244B1B6B03F002037B605D
:100528007B6800224FF40051204801F06DFB002247
:100538004FF470411E4801F067FB00224FF48071B0
:100548001C4801F061FB4FF400537B610123BB6140
:100558000023FB6100233B6207F11403194613488B
:1005680001F0CEF94FF470437B610123BB61002396
:10057800FB6100233B6207F1140319460C4801F0A4
:10058800BFF94FF480737B610123BB610023FB61DA
:1005980000233B6207F114031946064801F0B0F93D
:1005A80000BF2837BD4680BD003802400008024021
:1005B800000402400000024080B582B000AF7860BD
:1005C8002F4801F039FD4FF47A712D4801F01BFED8
:1005D8000346002B05D12A4801F0A0FE0346294A0C
:1005E8001360274801F0DCFD00224FF470412648D3
:1005F80001F00AFB00224FF48071244801F004FB4B
:10060800204B1B68B3F52F7F05D901224FF4805189
:100618001D4801F0F9FA1B4B1B6840F21452934233
:1006280005D901224FF40051174801F0EDFA154B96
:100638001B6840F26C72934205D901224FF4804145
:10064800114801F0E1FA0F4B1B6840F68C229342E7
:1006580005D901224FF400410B4801F0D5FA094BA6
:100668001B6840F6E442934205D901224FF4807199
:10067800064801F0C9FA00BF0837BD4680BD00BF73
:100688002C00002028000020000402400000024046
:1006980080B400AF72B600BFFEE780B400AFFEE7DB
:1006A80080B400AFFEE780B400AFFEE780B400AFCF
:1006B800FEE780B400AFFEE780B400AF00BFBD46E0
:1006C8005DF8047B704780B400AF00BFBD465DF89D
:1006D800047B704780B400AF00BFBD465DF8047B63
:1006E800704780B500AF01F00DFC00BF80BD000071
:1006F80080B500AF024800F04BF900BF80BD00BFD5
:100708007400002080B483B000AF00237B60104BDE
:100718005B6C0F4A43F4804353640D4B5B6C03F4EA
:1007280080437B607B6800233B60094B1B6C084A55
:1007380043F080531364064B1B6C03F080533B60FB
:100748003B6800BF0C37BD465DF8047B704700BFAF
:100758000038024080B58AB000AF786007F1140312
:1007680000221A605A609A60DA601A617B681B6816
:10077800174A934227D100233B61164B5B6C154AFD
:1007880043F480735364134B5B6C03F480733B61D5
:100798003B690023FB600F4B1B6B0E4A43F00103C0
:1007A80013630C4B1B6B03F00103FB60FB68022314
:1007B8007B610323BB610023FB6107F11403194626
:1007C800054801F09DF800BF2837BD4680BD00BF31
:1007D80000200140003802400000024080B584B08B
:1007E80000AF78607B681B680E4A934215D10023DE
:1007F800FB600D4B1B6C0C4A43F0040313640A4B5B
:100808001B6C03F00403FB60FB68002200211E2020
:1008180001F0EFFA1E2001F008FB00BF1037BD46BB
:1008280080BD00BF000800400038024080B582B09B
:1008380000AF78607B68002B01D1012341E07B6821
:1008480093F83D30DBB2002B06D17B68002283F899
:100858003C207868FFF7C2FF7B68022283F83D20BE
:100868007B681A687B6804331946104600F088FADA
:100878007B68012283F846207B68012283F83E20AA
:100888007B68012283F83F207B68012283F840209F
:100898007B68012283F841207B68012283F842208B
:1008A8007B68012283F843207B68012283F8442077
:1008B8007B68012283F845207B68012283F83D206C
:1008C800002318460837BD4680BD000080B485B0B7
:1008D80000AF78607B6893F83D30DBB2012B01D024
:1008E800012344E07B68022283F83D207B681B6873
:1008F800DA687B681B6842F00102DA607B681B6873
:100908001E4A934218D07B681B68B3F1804F13D0FE
:100918007B681B681A4A93420ED07B681B68194A89
:10092800934209D07B681B68174A934204D07B68BE
:100938001B68164A934211D17B681B689B6803F0B9
:100948000703FB60FB68062B10D07B681B681A68DE
:100958007B681B6842F001021A6007E07B681B682D
:100968001A687B681B6842F001021A600023184667
:100978001437BD465DF8047B704700BF0000014096
:100988000004004000080040000C00400040014006
:1009980080B582B000AF78607B681B681B6903F084
:1009A8000203022B22D17B681B68DB6803F0020379
:1009B800022B1BD17B681B686FF002021A617B68EF
:1009C80001221A777B681B689B6903F00303002BDD
:1009D80003D0786800F0B5F905E0786800F0A7F969
:1009E800786800F0B8F97B6800221A777B681B6882
:1009F8001B6903F00403042B22D17B681B68DB68A6
:100A080003F00403042B1BD17B681B686FF00402FE
:100A18001A617B6802221A777B681B689B6903F45A
:100A28004073002B03D0786800F08BF905E07868F4
:100A380000F07DF9786800F08EF97B6800221A775B
:100A48007B681B681B6903F00803082B22D17B68AD
:100A58001B68DB6803F00803082B1BD17B681B6845
:100A68006FF008021A617B6804221A777B681B689A
:100A7800DB6903F00303002B03D0786800F061F909
:100A880005E0786800F053F9786800F064F97B684D
:100A980000221A777B681B681B6903F01003102B70
:100AA80022D17B681B68DB6803F01003102B1BD175
:100AB8007B681B686FF010021A617B6808221A773E
:100AC8007B681B68DB6903F44073002B03D07868EC
:100AD80000F037F905E0786800F029F9786800F047
:100AE8003AF97B6800221A777B681B681B6903F058
:100AF8000103012B0ED17B681B68DB6803F001033F
:100B0800012B07D17B681B686FF001021A617868B6
:100B1800FFF752FD7B681B681B6903F08003802B7D
:100B28000ED17B681B68DB6803F08003802B07D13C
:100B38007B681B686FF080021A61786800F0B2FA6F
:100B48007B681B681B6903F04003402B0ED17B6850
:100B58001B68DB6803F04003402B07D17B681B68E8
:100B68006FF040021A61786800F0FFF87B681B6834
:100B78001B6903F02003202B0ED17B681B68DB6800
:100B880003F02003202B07D17B681B686FF020023D
:100B98001A61786800F07CFA00BF0837BD4680BD4E
:100BA80080B584B000AF786039600023FB737B6840
:100BB80093F83C30012B01D10223B4E07B68012279
:100BC80083F83C207B68022283F83D207B681B6801
:100BD8009B68BB60BB6823F07703BB60BB6823F4EA
:100BE8007F43BB607B681B68BA689A603B681B6878
:100BF800B3F5005F3ED0B3F5005F00F28780B3F530
:100C0800805F00F08680B3F5805F7FD8702B1AD0A4
:100C1800702B7BD8602B50D0602B77D8502B3CD0D2
:100C2800502B73D8402B58D0402B6FD8302B64D022
:100C3800302B6BD8202B60D0202B67D8002B5CD0B2
:100C4800102B5AD062E07B6818683B6899683B684B
:100C58005A683B68DB6800F08DF97B681B689B6805
:100C6800BB60BB6843F07703BB607B681B68BA68EE
:100C78009A604FE07B6818683B6899683B685A68D7
:100C88003B68DB6800F076F97B681B689A687B68CC
:100C98001B6842F480429A603CE07B6818683B68B5
:100CA80059683B68DB681A4600F0EAF87B681B68FD
:100CB8005021184600F043F92CE07B6818683B681F
:100CC80059683B68DB681A4600F009F97B681B68BD
:100CD8006021184600F033F91CE07B6818683B680F
:100CE80059683B68DB681A4600F0CAF87B681B68DD
:100CF8004021184600F023F90CE07B681A683B682D
:100D08001B681946104600F01AF903E00123FB732B
:100D180000E000BF7B68012283F83D207B68002249
:100D280083F83C20FB7B18461037BD4680BD80B455
:100D380083B000AF786000BF0C37BD465DF8047B18
:100D4800704780B483B000AF786000BF0C37BD46F1
:100D58005DF8047B704780B483B000AF786000BF53
:100D68000C37BD465DF8047B704780B483B000AF94
:100D7800786000BF0C37BD465DF8047B7047000003
:100D880080B485B000AF786039607B681B68FB6011
:100D98007B68344A93420FD07B68B3F1804F0BD005
:100DA8007B68314A934207D07B68304A934203D02C
:100DB8007B682F4A934208D1FB6823F07003FB60DD
:100DC8003B685B68FA681343FB607B68254A93427B
:100DD8001BD07B68B3F1804F17D07B68224A9342BF
:100DE80013D07B68214A93420FD07B68204A9342F4
:100DF8000BD07B681F4A934207D07B681E4A9342F8
:100E080003D07B681D4A934208D1FB6823F44073E2
:100E1800FB603B68DB68FA681343FB60FB6823F000
:100E280080023B685B691343FB607B68FA681A6061
:100E38003B689A687B68DA623B681A687B689A62E2
:100E48007B68084A934203D13B681A697B681A6336
:100E58007B6801225A6100BF1437BD465DF8047BE8
:100E6800704700BF00000140000400400008004037
:100E7800000C00400040014000440140004801408F
:100E880080B487B000AFF860B9607A60FB681B6A0D
:100E98007B61FB681B6A23F00102FB681A62FB682E
:100EA8009B693B613B6923F0F0033B617B681B0155
:100EB8003A6913433B617B6923F00A037B617A69D2
:100EC800BB6813437B61FB683A699A61FB687A697E
:100ED8001A6200BF1C37BD465DF8047B704780B4BA
:100EE80087B000AFF860B9607A60FB681B6A23F0CE
:100EF8001002FB681A62FB689B697B61FB681B6ACE
:100F08003B617B6923F470437B617B681B037A69CF
:100F180013437B613B6923F0A0033B61BB681B0162
:100F28003A6913433B61FB687A699A61FB683A69DD
:100F38001A6200BF1C37BD465DF8047B704780B459
:100F480085B000AF786039607B689B68FB60FB68A0
:100F580023F07003FB603A68FB68134343F0070310
:100F6800FB607B68FA689A6000BF1437BD465DF87D
:100F7800047B704780B487B000AFF860B9607A60CE
:100F88003B60FB689B687B617B6923F47F437B61E3
:100F98003B681A027B681A43BB6813437A69134398
:100FA8007B61FB687A699A6000BF1C37BD465DF8B3
:100FB800047B704780B485B000AF786039607B6887
:100FC80093F83C30012B01D1022350E07B680122C9
:100FD80083F83C207B68022283F83D207B681B68ED
:100FE8005B68FB607B681B689B68BB60FB6823F0E1
:100FF8007003FB603B681B68FA681343FB607B68FF
:101008001B68FA685A607B681B681C4A934218D0B0
:101018007B681B68B3F1804F13D07B681B68184A44
:1010280093420ED07B681B68164A934209D07B68AE
:101038001B68154A934204D07B681B68134A934285
:101048000CD1BB6823F08003BB603B685B68BA685F
:101058001343BB607B681B68BA689A607B6801228F
:1010680083F83D207B68002283F83C200023184643
:101078001437BD465DF8047B704700BF000001408F
:101088000004004000080040000C004000400140FF
:1010980080B483B000AF786000BF0C37BD465DF800
:1010A800047B704780B483B000AF786000BF0C3712
:1010B800BD465DF8047B704780B586B000AF7860A8
:1010C8007B68002B01D1012367E27B681B6803F072
:1010D8000103002B75D0884B9B6803F00C03042B8D
:1010E8000CD0854B9B6803F00C03082B12D1824B64
:1010F8005B6803F48003B3F5800F0BD17E4B1B684C
:1011080003F40033002B5BD07B685B68002B57D15E
:10111800012342E27B685B68B3F5803F06D1764BDA
:101128001B68754A43F4803313601DE07B685B6875
:10113800B3F5A02F0CD1704B1B686F4A43F4802382
:1011480013606D4B1B686C4A43F4803313600BE0EB
:10115800694B1B68684A23F480331360664B1B682D
:10116800654A23F4802313607B685B68002B13D0E7
:1011780000F0DCFE386108E000F0D8FE02463B696A
:10118800D31A642B01D9032307E25B4B1B6803F4D2
:101198000033002BF0D014E000F0C8FE386108E0FE
:1011A80000F0C4FE02463B69D31A642B01D903231D
:1011B800F3E1514B1B6803F40033002BF0D100E03E
:1011C80000BF7B681B6803F00203002B63D04A4B07
:1011D8009B6803F00C03002B0BD0474B9B6803F074
:1011E8000C03082B1CD1444B5B6803F48003002BD1
:1011F80016D1414B1B6803F00203002B05D07B6816
:10120800DB68012B01D00123C7E13B4B1B6823F0AE
:10121800F8027B681B69DB00374913430B603AE02F
:101228007B68DB68002B20D0344B01221A6000F069
:101238007DFE386108E000F079FE02463B69D31A6A
:10124800022B01D90323A8E12B4B1B6803F00203EF
:10125800002BF0D0284B1B6823F0F8027B681B6931
:10126800DB00254913430B6015E0244B00221A606C
:1012780000F05CFE386108E000F058FE02463B6969
:10128800D31A022B01D9032387E11B4B1B6803F0F8
:101298000203002BF0D17B681B6803F00803002BC6
:1012A80036D07B685B69002B16D0154B01221A607B
:1012B80000F03CFE386108E000F038FE02463B6969
:1012C800D31A022B01D9032367E10B4B5B6F03F0A1
:1012D8000203002BF0D01BE0094B00221A6000F03B
:1012E80025FE38610EE000F021FE02463B69D31A64
:1012F800022B07D9032350E100380240000047427F
:10130800800E4742884B5B6F03F00203002BEAD143
:101318007B681B6803F00403002B00F09780002310
:10132800FB75814B1B6C03F08053002B0FD10023FE
:10133800BB607D4B1B6C7C4A43F0805313647A4B33
:101348001B6C03F08053BB60BB680123FB75774BB4
:101358001B6803F48073002B18D1744B1B68734A05
:1013680043F48073136000F0E1FD386108E000F099
:10137800DDFD02463B69D31A022B01D903230CE198
:101388006A4B1B6803F48073002BF0D07B689B6862
:10139800012B06D1644B1B6F634A43F001031367AB
:1013A8001CE07B689B68052B0CD15F4B1B6F5E4A6A
:1013B80043F0040313675C4B1B6F5B4A43F0010364
:1013C80013670BE0584B1B6F574A23F00103136751
:1013D800554B1B6F544A23F0040313677B689B68C3
:1013E800002B15D000F0A2FD38610AE000F09EFD48
:1013F80002463B69D31A41F28832934201D903234A
:10140800CBE0494B1B6F03F00203002BEED014E036
:1014180000F08CFD38610AE000F088FD02463B6967
:10142800D31A41F28832934201D90323B5E03E4BE7
:101438001B6F03F00203002BEED1FB7D012B05D1BE
:10144800394B1B6C384A23F0805313647B689B69C3
:10145800002B00F0A180344B9B6803F00C03082B91
:101468005CD07B689B69022B41D1314B00221A600A
:1014780000F05CFD386108E000F058FD02463B6969
:10148800D31A022B01D9032387E0274B1B6803F0EB
:101498000073002BF0D17B68DA697B681B6A1A43FA
:1014A8007B685B6A9B011A437B689B6A5B08013B0C
:1014B8001B041A437B68DB6A1B061B4913434B60FA
:1014C8001B4B01221A6000F031FD386108E000F082
:1014D8002DFD02463B69D31A022B01D903235CE098
:1014E800114B1B6803F00073002BF0D054E0104B35
:1014F80000221A6000F01AFD386108E000F016FDBD
:1015080002463B69D31A022B01D9032345E0064B57
:101518001B6803F00073002BF0D13DE07B689B69EA
:10152800012B07D1012338E0003802400070004049
:10153800600047421B4B5B68FB607B689B69012B23
:1015480028D0FB6803F480027B68DB699A4221D1CA
:10155800FB6803F03F027B681B6A9A421AD1FA685B
:1015680047F6C07313407A68526A9201934211D1C8
:10157800FB6803F440327B689B6A5B08013B1B04F1
:101588009A4207D1FB6803F070627B68DB6A1B062E
:101598009A4201D0012300E0002318461837BD46BF
:1015A80080BD00BF0038024080B584B000AF7860CD
:1015B80039607B68002B01D10123CCE0684B1B68A4
:1015C80003F007033A689A420CD9654B3A68D2B2DD
:1015D8001A70634B1B6803F007033A689A4201D0FC
:1015E8000123B8E07B681B6803F00203002B20D0BE
:1015F8007B681B6803F00403002B05D0594B9B68DC
:10160800584A43F4E05393607B681B6803F008036F
:10161800002B05D0534B9B68524A43F460439360B8
:10162800504B9B6823F0F0027B689B684D4913433D
:101638008B607B681B6803F00103002B44D07B6838
:101648005B68012B07D1474B1B6803F40033002B61
:1016580019D101237FE07B685B68022B03D07B688C
:101668005B68032B07D13F4B1B6803F00073002B0B
:1016780009D101236FE03B4B1B6803F00203002BE9
:1016880001D1012367E0374B9B6823F003027B6895
:101698005B68344913438B6000F048FCF8600AE04B
:1016A80000F044FC0246FB68D31A41F288329342A8
:1016B80001D903234FE02B4B9B6803F00C027B6896
:1016C8005B689B009A42EBD1254B1B6803F007032C
:1016D8003A689A420CD2224B3A68D2B21A70204B1E
:1016E8001B6803F007033A689A4201D0012332E0ED
:1016F8007B681B6803F00403002B08D0194B9B6818
:1017080023F4E0527B68DB68164913438B607B68DF
:101718001B6803F00803002B09D0124B9B6823F4C5
:1017280060427B681B69DB000E4913438B6000F045
:1017380021F802460B4B9B681B0903F00F030A496B
:10174800CB5C22FA03F3094A1360094B1B6818465D
:1017580000F0A8FB002318461037BD4680BD00BF27
:10176800003C024000380240282B000808000020F6
:10177800000000202DE9B04F90B000AF00237B633C
:101788000023FB6300233B630023BB63594B9B6827
:1017980003F00C03082B0DD0082B00F2A180002BBE
:1017A80002D0042B03D09BE0534BBB639BE0534B0D
:1017B800BB6398E04F4B5B6803F03F037B634D4B83
:1017C8005B6803F48003002B28D04A4B5B689B09B5
:1017D80000223B627A623B6AC3F308000021474B50
:1017E80003FB01F2002300FB03F31344434AA0FB6D
:1017F8000212FA620A46BA62FA6A1344FB627B6B07
:101808000022BB61FA61D7E90623D7E90A01FEF78E
:10181800BFFC02460B461346FB6353E0354B5B683F
:101828009B0900223B617A613B69C3F3080A4FF0C8
:10183800000B52465B464FF000004FF00001590183
:1018480041EAD261500102460B46B2EB0A0863EB4B
:101858000B094FF000024FF000034FEA891343EAE7
:1018680098634FEA8812B2EB080463EB09054FF05E
:1018780000024FF00003EB0043EA5473E200144601
:101888001D4614EB0A033B6045EB0B037B604FF0EE
:1018980000024FF00003D7E9004529468B02214694
:1018A80043EA915321468A02104619467B6B00226F
:1018B800BB60FA60D7E90223FEF76AFC02460B46D2
:1018C8001346FB630B4B5B681B0C03F003030133EC
:1018D8005B003B63FA6B3B6BB2FBF3F3BB6302E069
:1018E800054BBB6300BFBB6B18464037BD46BDE820
:1018F800B08F00BF003802400024F40040787D011A
:1019080080B489B000AF7860396000237B61002320
:101918003B610023BB610023FB6159E10122FB69A4
:1019280002FA03F37B613B681B687A6913403B61E9
:101938003A697B699A4240F048813B685B6803F0EA
:101948000303012B05D03B685B6803F00303022BFC
:1019580030D17B689B68BB61FB695B00032202FA9C
:1019680003F3DB43BA691340BB613B68DA68FB6980
:101978005B0002FA03F3BA691343BB617B68BA6977
:101988009A607B685B68BB610122FB6902FA03F31A
:10199800DB43BA691340BB613B685B681B0903F012
:1019A8000102FB6902FA03F3BA691343BB617B685E
:1019B800BA695A603B685B6803F00303032B17D0CE
:1019C8007B68DB68BB61FB695B00032202FA03F3F7
:1019D800DB43BA691340BB613B689A68FB695B00EB
:1019E80002FA03F3BA691343BB617B68BA69DA6028
:1019F8003B685B6803F00303022B23D1FB69DA0819
:101A08007B68083253F82230BB61FB6903F0070397
:101A18009B000F2202FA03F3DB43BA691340BB6150
:101A28003B681A69FB6903F007039B0002FA03F39A
:101A3800BA691343BB61FB69DA087B680832B96984
:101A480043F822107B681B68BB61FB695B000322BB
:101A580002FA03F3DB43BA691340BB613B685B6876
:101A680003F00302FB695B0002FA03F3BA6913434C
:101A7800BB617B68BA691A603B685B6803F44033F2
:101A8800002B00F0A2800023FB60574B5B6C564A8A
:101A980043F480435364544B5B6C03F48043FB6012
:101AA800FB68524AFB699B08023352F82330BB613A
:101AB800FB6903F003039B000F2202FA03F3DB43E5
:101AC800BA691340BB617B68494A934219D07B6865
:101AD800484A934213D07B68474A93420DD07B68AB
:101AE800464A934207D07B68454A934201D1042372
:101AF80008E0072306E0032304E0022302E00123B1
:101B080000E00023FA6902F0030292009340BA69E8
:101B18001343BB613549FB699B080233BA6941F835
:101B28002320384B9B68BB613B69DB43BA69134090
:101B3800BB613B685B6803F48013002B03D0BA6970
:101B48003B691343BB612F4ABB6993602D4BDB682C
:101B5800BB613B69DB43BA691340BB613B685B68A7
:101B680003F40013002B03D0BA693B691343BB612C
:101B7800244ABB69D360234B5B68BB613B69DB4389
:101B8800BA691340BB613B685B6803F40033002B00
:101B980003D0BA693B691343BB611A4ABB695360F6
:101BA800184B1B68BB613B69DB43BA691340BB61D7
:101BB8003B685B6803F48033002B03D0BA693B6948
:101BC8001343BB610F4ABB691360FB690133FB61B7
:101BD800FB690F2B7FF6A2AE00BF00BF2437BD46BE
:101BE8005DF8047B704700BF0038024000380140B0
:101BF800000002400004024000080240000C0240BD
:101C080000100240003C014080B483B000AF78600F
:101C18000B467B8013467B707B78002B03D07A8839
:101C28007B689A6103E07B881A047B689A6100BF2D
:101C38000C37BD465DF8047B7047000080B485B062
:101C480000AF78607B6803F00703FB600C4BDB6830
:101C5800BB60BA684FF6FF031340BB60FB681A020B
:101C6800BB68134343F0BF6343F40033BB60044ACB
:101C7800BB68D36000BF1437BD465DF8047B70476E
:101C880000ED00E080B400AF044BDB681B0A03F0F2
:101C980007031846BD465DF8047B704700ED00E079
:101CA80080B483B000AF0346FB7197F90730002B6F
:101CB8000BDBFB7903F01F02074997F907305B0933
:101CC800012000FA02F241F8232000BF0C37BD467C
:101CD8005DF8047B704700BF00E100E080B483B08A
:101CE80000AF03463960FB7197F90730002B0ADB18
:101CF8003B68DAB20C4997F907301201D2B20B44AB
:101D080083F800230AE03B68DAB20849FB7903F05C
:101D18000F03043B1201D2B20B441A7600BF0C37F2
:101D2800BD465DF8047B704700E100E000ED00E08F
:101D380080B489B000AFF860B9607A60FB6803F0DE
:101D48000703FB61FB69C3F10703042B28BF0423C6
:101D5800BB61FB690433062B02D9FB69033B00E036
:101D680000237B614FF0FF32BB6902FA03F3DA43C9
:101D7800BB681A407B699A404FF0FF317B6901FAD2
:101D880003F3D9437B680B40134318462437BD46F9
:101D98005DF8047B7047000080B582B000AF7860C2
:101DA8007B68013BB3F1807F01D301230FE00A4A2E
:101DB8007B68013B53600F214FF0FF30FFF78EFF28
:101DC800054B00229A60044B07221A60002318462C
:101DD8000837BD4680BD00BF10E000E080B582B086
:101DE80000AF78607868FFF729FF00BF0837BD4665
:101DF80080BD80B586B000AF0346B9607A60FB73DA
:101E080000237B61FFF73EFF78617A68B9687869DB
:101E1800FFF78EFF024697F90F3011461846FFF775
:101E28005DFF00BF1837BD4680BD80B582B000AFEA
:101E38000346FB7197F907301846FFF731FF00BFDB
:101E48000837BD4680BD80B582B000AF786078683D
:101E5800FFF7A2FF034618460837BD4680BD0000BD
:101E680080B500AF0E4B1B680D4A43F40073136036
:101E78000B4B1B680A4A43F480631360084B1B68CA
:101E8800074A43F4807313600320FFF7A7FF0F206E
:101E980000F008F8FEF736FC0023184680BD00BFA6
:101EA800003C024080B582B000AF7860124B1A68DF
:101EB800124B1B7819464FF47A73B3FBF1F3B2FB5C
:101EC800F3F31846FFF7BFFF0346002B01D00123A9
:101ED8000EE07B680F2B0AD8002279684FF0FF309C
:101EE800FFF787FF064A7B681360002300E00123A1
:101EF80018460837BD4680BD0800002004000020B1
:101F08000000002080B400AF064B1B781A46064B31
:101F18001B681344044A136000BFBD465DF8047B88
:101F2800704700BF04000020BC00002080B400AF50
:101F3800034B1B681846BD465DF8047B704700BF1D
:101F4800BC00002080B584B000AF7860FFF7EEFFDA
:101F5800B8607B68FB60FB68B3F1FF3F05D00A4BB4
:101F68001B781A46FB681344FB6000BFFFF7DEFFCF
:101F78000246BB68D31AFA689A42F7D800BF00BF76
:101F88001037BD4680BD00BF0400002080B400AFFC
:101F9800064BD3F88830054A43F47003C2F88830FA
:101FA80000BFBD465DF8047B704700BF00ED00E050
:101FB80080B584B000AF78600023FB737B68002B8A
:101FC80001D1012333E07B681B6C002B09D17868B1
:101FD800FEF7C0FB7B6800225A647B68002283F806
:101FE8003C207B681B6C03F01003002B18D17B6826
:101FF8001B6C23F4885323F0020343F002027B682E
:102008001A64786800F0CAFA7B6800225A647B6810
:102018001B6C23F0030343F001027B681A6401E0A0
:102028000123FB737B68002283F83C20FB7B184666
:102038001037BD4680BD000080B485B000AF786021
:102048000023BB607B6893F83C30012B01D102234D
:1020580097E07B68012283F83C207B681B689B68BB
:1020680003F00103012B18D07B681B689A687B6812
:102078001B6842F001029A60454B1B68454AA2FB67
:1020880003239A0C13465B001344BB6002E0BB6851
:10209800013BBB60BB68002BF9D17B681B689B6860
:1020A80003F00103012B5FD17B681B6C23F4E06311
:1020B80023F0010343F480727B681A647B681B6811
:1020C8005B6803F48063002B07D07B681B6C23F4E8
:1020D800405343F480527B681A647B681B6C03F49A
:1020E8008053B3F5805F06D17B685B6C23F00602F2
:1020F8007B685A6402E07B6800225A647B6800228D
:1021080083F83C20244BFB607B681B686FF022023D
:102118001A60FB685B6803F01F03002B0FD17B6814
:102128001B689B6803F04053002B29D17B681B6810
:102138009A687B681B6842F080429A6020E07B685E
:102148001B68164A93421BD17B681B689B6803F087
:102158004053002B14D17B681B689A687B681B6806
:1021680042F080429A600BE07B681B6C43F01002DF
:102178007B681A647B685B6C43F001027B685A6475
:10218800002318461437BD465DF8047B704700BF2E
:102198000800002083DE1B4300230140002001408B
:1021A80080B483B000AF78607B6893F83C30012B33
:1021B80001D1022321E07B68012283F83C207B685F
:1021C8001B689A687B681B6822F001029A607B682A
:1021D8001B689B6803F00103002B09D17B681B6C0B
:1021E80023F4885323F0010343F001027B681A6447
:1021F8007B68002283F83C20002318460C37BD4634
:102208005DF8047B704780B584B000AF78603960B2
:102218000023FB607B681B689B6803F48063B3F54D
:10222800806F13D17B681B689B6803F48073B3F5D8
:10223800807F0BD17B681B6C43F020027B681A649B
:102248007B68002283F83C20012363E0FFF76EFEE1
:10225800F86021E03B68B3F1FF3F1DD03B68002BDD
:1022680007D0FFF763FE0246FB68D31A3A689A4222
:1022780012D27B681B681B6803F00203022B0BD089
:102288007B681B6C43F004027B681A647B6800223D
:1022980083F83C2003233DE07B681B681B6803F040
:1022A8000203022BD6D17B681B686FF012021A60FA
:1022B8007B681B6C43F400727B681A647B681B683C
:1022C8009B6803F04053002B23D17B681B7E002BB7
:1022D8001FD17B681B68DB6A03F47003002B06D0F0
:1022E8007B681B689B6803F48063002B11D17B68B3
:1022F8001B6C23F480727B681A647B681B6C03F484
:102308008053002B05D17B681B6C43F001027B686E
:102318001A64002318461037BD4680BD80B483B0C8
:1023280000AF78607B681B68DB6C18460C37BD46CD
:102338005DF8047B7047000080B485B000AF78601A
:1023480039600023BB607B6893F83C30012B01D1D6
:10235800022313E17B68012283F83C203B681B6859
:10236800092B25D97B681B68D9683B681B689BB219
:102378001A4613465B0013441E3B072202FA03F376
:10238800DA437B681B680A40DA607B681B68D96897
:102398003B689A683B681B689BB2184603465B001B
:1023A80003441E3B9A407B681B680A43DA6022E0BC
:1023B8007B681B6819693B681B689BB21A46134601
:1023C8005B001344072202FA03F3DA437B681B68B5
:1023D8000A401A617B681B6819693B689A683B6800
:1023E8001B689BB2184603465B0003449A407B680F
:1023F8001B680A431A613B685B68062B24D87B6814
:102408001B68596B3B685A6813469B001344053B8D
:102418001F2202FA03F3DA437B681B680A405A63F7
:102428007B681B68596B3B681B689BB218463B6806
:102438005A6813469B001344053B00FA03F27B6875
:102448001B680A435A634CE03B685B680C2B24D832
:102458007B681B68196B3B685A6813469B001344DA
:10246800233B1F2202FA03F3DA437B681B680A4006
:102478001A637B681B68196B3B681B689BB218461C
:102488003B685A6813469B001344233B00FA03F247
:102498007B681B680A431A6323E07B681B68D96A58
:1024A8003B685A6813469B001344413B1F2202FABB
:1024B80003F3DA437B681B680A40DA627B681B68AF
:1024C800D96A3B681B689BB218463B685A68134632
:1024D8009B001344413B00FA03F27B681B680A43E4
:1024E800DA62294BFB607B681B68284A93420FD14C
:1024F8003B681B68122B0BD1FB685B6823F4000256
:10250800FB685A60FB685B6843F48002FB685A60AA
:102518007B681B681D4A93422BD13B681B681C4A89
:10252800934203D03B681B68112B22D1FB685B6880
:1025380023F48002FB685A60FB685B6843F400027E
:10254800FB685A603B681B68114A934211D1114BD2
:102558001B68114AA2FB03239A0C13469B001344E1
:102568005B00BB6002E0BB68013BBB60BB68002B43
:10257800F9D17B68002283F83C20002318461437E1
:10258800BD465DF8047B70470023014000200140F0
:10259800120000100800002083DE1B4380B485B0C1
:1025A80000AF7860794BFB60FB685B6823F44032CE
:1025B800FB685A60FB685A687B685B681A43FB686B
:1025C8005A607B681B685A687B681B6822F48072B3
:1025D8005A607B681B6859687B681B691A027B68AC
:1025E8001B680A435A607B681B685A687B681B68CB
:1025F80022F040725A607B681B6859687B689A6849
:102608007B681B680A435A607B681B689A687B680A
:102618001B6822F400629A607B681B6899687B6873
:10262800DA687B681B680A439A607B689B6A584A29
:10263800934222D07B681B689A687B681B6822F0EB
:1026480070629A607B681B6899687B689A6A7B6885
:102658001B680A439A607B681B689A687B681B68DA
:1026680022F040529A607B681B6899687B68DA6A36
:102678007B681B680A439A600FE07B681B689A684E
:102688007B681B6822F070629A607B681B689A6896
:102698007B681B6822F040529A607B681B689A68C6
:1026A8007B681B6822F002029A607B681B68996845
:1026B8007B681B7E5A007B681B680A439A607B68AC
:1026C80093F82030002B1BD07B681B685A687B6806
:1026D8001B6842F400625A607B681B685A687B6812
:1026E8001B6822F460425A607B681B6859687B68E3
:1026F8005B6A013B5A037B681B680A435A6007E020
:102708007B681B685A687B681B6822F400625A6001
:102718007B681B68DA6A7B681B6822F47002DA62DD
:102728007B681B68D96A7B68DB69013B1A057B6893
:102738001B680A43DA627B681B689A687B681B68B7
:1027480022F400729A607B681B6899687B6893F82A
:1027580030305A027B681B680A439A607B681B68A2
:102768009A687B681B6822F480629A607B681B68A1
:1027780099687B685B699A027B681B680A439A6060
:1027880000BF1437BD465DF8047B70470023014045
:102798000100000FDFF834D00D480E490E4A00231F
:1027A80002E0D458C4500433C4188C42F9D30B4AFD
:1027B8000B4C002301E013600432A242FBD3FFF765
:1027C800E5FB00F019F8FDF743FD70470000022013
:1027D800000000200C000020482B00080C000020FE
:1027E800C0000020FEE702440346934200D1704730
:1027F80003F8011BF9E7000070B50D4D0D4C641B83
:10280800A4100026A64209D10B4D0C4C00F07CF90F
:10281800641BA4100026A64205D170BD55F8043BE0
:1028280098470136EEE755F8043B98470136F2E73A
:10283800402B0008402B0008402B0008442B0008C0
:102848002DE9F047089E0D4604460F46002B4AD155
:102858008A42944665D9B2FA82F343B102FA03FC7C
:10286800C3F120029F4020FA02F217439C404FEA2E
:102878001C4E1FFA8CF5B7FBFEF1220C0EFB1177EC
:1028880042EA074201FB05F090420AD91CEB02021A
:1028980001F1FF3780F01C81904240F21981023922
:1028A8006244121AA4B2B2FBFEF00EFB102244EAF4
:1028B800024400FB05F5A5420AD91CEB040400F10B
:1028C800FF3280F00781A54240F204816444023857
:1028D80040EA0140641B00211EB1DC400023C6E928
:1028E8000043BDE8F0878B4208D9002E00F0ED8048
:1028F8000021C6E900050846BDE8F087B3FA83F170
:10290800002949D1AB4202D3824200F2F880841AEE
:1029180065EB030201201746002EE2D0C6E9004706
:10292800DFE702B9FFDEB2FA82F3002B40F09080B5
:102938008A1A4FEA1C471FFA8CFE0121B2FBF7F5F1
:1029480007FB1520220C42EA00420EFB05F09042DC
:1029580008D91CEB020205F1FF3802D2904200F2BE
:10296800CB804546121AA4B2B2FBF7F007FB10223F
:1029780044EA02440EFB00FEA64508D91CEB0404F9
:1029880000F1FF3202D2A64500F2BB801046A4EB4C
:102998000E0440EA05409FE7C1F120078B4022FA68
:1029A80007FC4CEA030C05FA01F420FA07F3FD4092
:1029B8004FEA1C492343B5FBF9F81FFA8CFE09FBC3
:1029C80018551C0C44EA054408FB0EF5A54202FA0A
:1029D80001F200FA01F00BD91CEB040408F1FF3AEC
:1029E80080F08880A54240F28580A8F102086444FE
:1029F800641B9DB2B4FBF9F309FB134445EA044494
:102A080003FB0EFEA64508D91CEB040403F1FF35B1
:102A18006CD2A6456AD9023B644443EA0843A3FB47
:102A28000295A4EB0E04AC42C846AE4656D353D02A
:102A380056B1B0EB080264EB0E0404FA07F7CA407B
:102A4800CC401743C6E9007418460021BDE8F0875A
:102A5800C3F1200102FA03FC20FA01F225FA01F180
:102A68009D402A434FEA1C471FFA8CFEB1FBF7F042
:102A780007FB1015110C41EA054100FB0EF58D42CC
:102A880004FA03F408D91CEB010100F1FF382FD236
:102A98008D422DD902386144491B92B2B1FBF7F53A
:102AA80007FB151142EA014205FB0EF1914208D9D4
:102AB8001CEB020205F1FF3816D2914214D9023DEF
:102AC8006244521A45EA004138E73146304608E781
:102AD8003946E6E61046FBE64845A9D2B9EB0208B6
:102AE80065EB0C0E013BA3E74546EAE72B4694E766
:102AF8004046D1E7D0467BE7023D624432E70846CC
:102B08000AE76444023842E7F8B500BFF8BC08BCDD
:102B18009E467047F8B500BFF8BC08BC9E46704793
:102B28000000000000000000010203040607080975
:082B380010FDFF7F0100000009
:042B40003502000852
:042B44000D02000876
:0C2B480010000000010000000024F40058
:040000050800279D2B
:00000001FF
