:020000040800F2
:1000000000000220E9220008EF090008F7090008B3
:10001000FF090008070A00080F0A00080000000096
:10002000000000000000000000000000170A0008A7
:10003000250A000800000000330A0008410A0008F1
:100040003923000839230008392300083923000820
:100050003923000839230008392300083923000810
:100060003923000839230008392300083923000800
:1000700039230008392300083923000839230008F0
:100080003923000839230008392300080000000044
:1000900000000000000000000000000039230008FC
:1000A00039230008392300083923000839230008C0
:1000B00039230008392300084D0A000839230008B5
:1000C00039230008392300083923000839230008A0
:1000D00039230008392300083923000800000000F4
:1000E00039230008392300083923000800000000E4
:1000F000000000000000000000000000392300089C
:1001000000000000392300083923000839230008C3
:1001100000000000000000000000000000000000DF
:10012000392300083923000839230008392300083F
:10013000392300080000000000000000000000005B
:10014000000000000000000000000000392300084B
:10015000392300083923000839230008392300080F
:1001600039230008392300080000000000000000C7
:10017000000000000000000000000000000000007F
:10018000000000003923000800000000000000000B
:0801900039230008392300089F
:1001980010B5054C237833B9044B13B10448AFF3B9
:1001A80000800123237010BD100000200000000013
:1001B8009423000808B5034B1BB103490348AFF368
:1001C800008008BD000000001400002094230008EF
:1001D80053B94AB9002908BF00281CBF4FF0FF31A6
:1001E8004FF0FF3000F06AB9ADF1080C6DE904CEAC
:1001F80000F006F8DDF804E0DDE9022304B07047FA
:100208002DE9F047089D0C46002B4ED194468C45AD
:100218008646B2FA82F262D94AB1C2F1200391400D
:1002280020FA03F30CFA02FC194300FA02FE4FEA23
:100238001C471FFA8CF6B1FBF7F44FEA1E4307FB85
:10024800141143EA014304FB06F199420AD91CEB55
:10025800030304F1FF3080F01281994240F20F81CC
:10026800023C6344591A1FFA8EF3B1FBF7F007FBFF
:10027800101143EA014300FB06F69E420AD91CEB23
:10028800030300F1FF3180F0FC809E4240F2F980C8
:10029800634402389B1B40EA044000211DB1D3404F
:1002A8000022C5E90032BDE8F0878B4205D90DB1BF
:1002B800C5E9000100210846F5E7B3FA83F10029F2
:1002C80046D1A34202D39042C0F0F080861A64EB74
:1002D80003030120002DE6D0C5E90063E3E7002A07
:1002E80040F09080A1EB0C044FEA1C481FFA8CF7F1
:1002F8000121B4FBF8F64FEA1E4308FB164443EA13
:10030800044307FB06F0984208D91CEB030306F1E7
:10031800FF3402D2984200F2CD8026461C1A1FFAFA
:100328008EF3B4FBF8F008FB104443EA044300FBE7
:1003380007F79F4208D91CEB030300F1FF3402D2F0
:100348009F4200F2B0802046DB1B40EA0640A5E74A
:10035800C1F120068B4022FA06F71F4320FA06FC5B
:1003680004FA01F343EA0C03F44000FA01F8380CEC
:100378004FEA1349B4FBF0FE1FFA87FC00FB1E444A
:1003880049EA04440EFB0CF9A14502FA01F20AD924
:100398003C190EF1FF3A80F08480A14540F281803B
:1003A800AEF1020E3C44A4EB09041FFA83F9B4FB36
:1003B800F0F300FB134449EA044403FB0CFCA44596
:1003C80007D93C1903F1FF3067D2A44565D9023B30
:1003D8003C4443EA0E40A0FB0293A4EB0C049C426D
:1003E800CE469C4651D34ED055B1B8EB0E0364EBC4
:1003F8000C0404FA06F6CB401E43CC40C5E9006461
:10040800002150E7C2F1200320FA03F10CFA02FCA4
:1004180024FA03F394400C434FEA1C4800FA02FE06
:100428001FFA8CF7B3FBF8F008FB1031230C43EAF2
:10043800014300FB07F1994208D91CEB030300F1C3
:10044800FF362CD299422AD9023863445B1AA4B2E7
:10045800B3FBF8F108FB113344EA034401FB07F34B
:10046800A34208D91CEB040401F1FF3613D2A342BE
:1004780011D902396444E41A41EA004139E70446D3
:10048800F0E6084606E7C845AED2B9EB020E63EBC4
:10049800070C0138A8E73146EDE7034699E73046EF
:1004A800D4E7D6467FE7634402384DE7064623463D
:1004B80008460FE7023E634430E700BF704700BFBD
:1004C80080B500AF01F064FE00F0AAF800F060F912
:1004D80000F010F92B4800F05FFB012201212A48A7
:1004E80000F053FA0346002B24D0264BDB6840F279
:1004F800054293421BD9234B1B68DB6A03F2064370
:10050800B3F5803F13D21F4B1B68DA6A1D4B1B687B
:1005180002F20642DA621B4B1B68DB6A03F20643EF
:10052800184AD3604FF40051184801F004FDC82060
:1005380001F0A0FE01220221134800F026FA03462A
:10054800002BCAD00F4B1B68DB6A40F2054293426E
:1005580013D90C4B1B68DA6A0A4B1B68A2F20642D5
:10056800DA62084B1B68DB6AA3F20643054AD360CC
:100578004FF40051054801F0DEFCC82001F07AFE76
:10058800ABE700BF2C00002000000240000802403A
:1005980080B582B000AF0346FB71FB7903F001031D
:1005A800DBB21A464FF480511B4801F0ABFCFB79D3
:1005B8005B10DBB203F00103DBB21A464FF40051C3
:1005C800154801F09FFCFB799B10DBB203F0010397
:1005D800DBB21A464FF480410F4801F093FCFB79D7
:1005E800DB10DBB203F00103DBB21A464FF4004123
:1005F800094801F087FCFB791B11DBB203F001030A
:10060800DBB21A464FF48071044801F07BFC00BF4E
:100618000837BD4680BD00BF00040240000002400C
:1006280080B594B000AF07F12003302200211846AE
:1006380001F07FFE07F10C0300221A605A609A60ED
:10064800DA601A610023BB60284B1B6C274A43F011
:1006580080531364254B1B6C03F08053BB60BB684D
:1006680000237B60224B1B68214A43F440431360FC
:100678001F4B1B6803F440437B607B6801233B628C
:100688004FF480337B620223BB634FF48003FB6328
:1006980019233B64C0237B640223BB640423FB64EB
:1006A80007F12003184600F06DFE0346002B01D029
:1006B80000F01EF90F23FB6002233B6100237B61DE
:1006C8004FF48053BB614FF4E053FB6107F10C0317
:1006D8000321184601F0CEF80346002B01D000F0A4
:1006E80007F900BF5037BD4680BD00BF0038024043
:1006F8000070004080B586B000AF07F10803002203
:100708001A605A609A60DA603B4600221A605A60A2
:100718001D4B1E4A1A601C4B42F27F525A601A4BFC
:1007280000229A60184B40F20642DA60164B00220B
:100738001A61154B00229A61134800F0DDF903464F
:10074800002B01D000F0D4F84FF48053BB6007F1C0
:10075800080319460C4800F089FB0346002B01D01A
:1007680000F0C6F800233B6000237B603B46194637
:10077800054800F085FD0346002B01D000F0B8F8CD
:1007880000BF1837BD4680BD2C000020000800407F
:1007980080B58AB000AF07F1140300221A605A60CE
:1007A8009A60DA601A6100233B61424B1B6B414A35
:1007B80043F0040313633F4B1B6B03F004033B61DB
:1007C8003B690023FB603B4B1B6B3A4A43F08003B9
:1007D8001363384B1B6B03F08003FB60FB6800233B
:1007E800BB60344B1B6B334A43F001031363314B3B
:1007F8001B6B03F00103BB60BB6800237B602D4BC0
:100808001B6B2C4A43F0020313632A4B1B6B03F048
:1008180002037B607B6800224FF40051264801F0F8
:1008280071FB00224FF47041244801F06BFB002259
:100838004FF48071224801F065FB4FF400537B614F
:100848000123BB610023FB6100233B6207F1140312
:100858001946194801F0BAF903237B610023BB61EB
:100868000023FB6107F114031946154801F0AEF99E
:100878004FF470437B610123BB610023FB610023BC
:100888003B6207F1140319460C4801F09FF94FF435
:1008980080737B610123BB610023FB6100233B6202
:1008A80007F114031946064801F090F900BF2837EC
:1008B800BD4680BD003802400008024000040240E6
:1008C8000000024080B582B000AF7860074B1B780B
:1008D800013BDAB2054B1A70044B1B781846FFF738
:1008E80057FE00BF0837BD4680BD00BF000000208E
:1008F80080B400AF72B600BF00BFFDE780B586B018
:1009080000AF78600B467B8013463B800523FB6075
:100918000023FB740023BB7400233B8200237B610C
:1009280018E07B881946786801F0D4FA0346002B52
:1009380005D0FB7C0133FB740023BB7404E0BB7C53
:100948000133BB740023FB74012001F093FC7B6925
:1009580001337B617A69FB689A42E2D33B88002BBA
:1009680007D0FA7CFB685B089A4209D9FF233B82CF
:1009780006E0BA7CFB685B089A4201D9FF233B82F8
:100988003B8A18461837BD4680BD80B582B000AF97
:1009980078600B467B8013463B803A887B881946F3
:1009A8007868FFF7ABFF0346002B17D03B88002B76
:1009B80009D000BF7B881946786801F08BFA034696
:1009C800002BF7D108E000BF7B881946786801F052
:1009D80081FA0346002BF7D0FF2300E000231846D6
:1009E8000837BD4680BD80B400AF00BFFDE780B4C6
:1009F80000AF00BFFDE780B400AF00BFFDE780B4E3
:100A080000AF00BFFDE780B400AF00BFFDE780B4D2
:100A180000AF00BFBD465DF8047B704780B400AFEF
:100A280000BFBD465DF8047B704780B400AF00BFCF
:100A3800BD465DF8047B704780B500AF01F0FAFB56
:100A480000BF80BD80B500AF024800F007F900BFC5
:100A580080BD00BF2C00002080B483B000AF00230D
:100A68007B60104B5B6C0F4A43F4804353640D4B1F
:100A78005B6C03F480437B607B6800233B60094B1D
:100A88001B6C084A43F080531364064B1B6C03F03D
:100A980080533B603B6800BF0C37BD465DF8047B64
:100AA800704700BF0038024080B584B000AF78605E
:100AB8007B681B680E4A934215D10023FB600D4BDF
:100AC8001B6C0C4A43F0040313640A4B1B6C03F0C1
:100AD8000403FB60FB68002200211E2001F021FBBB
:100AE8001E2001F03AFB00BF1037BD4680BD00BF95
:100AF800000800400038024080B582B000AF78603E
:100B08007B68002B01D1012341E07B6893F83D30DD
:100B1800DBB2002B06D17B68002283F83C20786882
:100B2800FFF7C2FF7B68022283F83D207B681A68C2
:100B38007B6804331946104600F088FA7B68012266
:100B480083F846207B68012283F83E207B680122D7
:100B580083F83F207B68012283F840207B680122CC
:100B680083F841207B68012283F842207B680122B8
:100B780083F843207B68012283F844207B680122A4
:100B880083F845207B68012283F83D20002318461E
:100B98000837BD4680BD000080B485B000AF7860DE
:100BA8007B6893F83D30DBB2012B01D0012344E090
:100BB8007B68022283F83D207B681B68DA687B68C3
:100BC8001B6842F00102DA607B681B681E4A934288
:100BD80018D07B681B68B3F1804F13D07B681B6803
:100BE8001A4A93420ED07B681B68194A934209D06F
:100BF8007B681B68174A934204D07B681B68164AB7
:100C0800934211D17B681B689B6803F00703FB6064
:100C1800FB68062B10D07B681B681A687B681B680A
:100C280042F001021A6007E07B681B681A687B685B
:100C38001B6842F001021A60002318461437BD46AB
:100C48005DF8047B704700BF0000014000040040CD
:100C580000080040000C00400040014080B582B010
:100C680000AF78607B681B681B6903F00203022BE6
:100C780022D17B681B68DB6803F00203022B1BD1BF
:100C88007B681B686FF002021A617B6801221A7781
:100C98007B681B689B6903F00303002B03D078680B
:100CA80000F0B5F905E0786800F0A7F9786800F079
:100CB800B8F97B6800221A777B681B681B6903F008
:100CC8000403042B22D17B681B68DB6803F0040350
:100CD800042B1BD17B681B686FF004021A617B68C8
:100CE80002221A777B681B689B6903F44073002B08
:100CF80003D0786800F08BF905E0786800F07DF99A
:100D0800786800F08EF97B6800221A777B681B6888
:100D18001B6903F00803082B22D17B681B68DB687A
:100D280003F00803082B1BD17B681B686FF00802CF
:100D38001A617B6804221A777B681B68DB6903F0F9
:100D48000303002B03D0786800F061F905E07868A8
:100D580000F053F9786800F064F97B6800221A778C
:100D68007B681B681B6903F01003102B22D17B687A
:100D78001B68DB6803F01003102B1BD17B681B6812
:100D88006FF010021A617B6808221A777B681B686B
:100D9800DB6903F44073002B03D0786800F037F95F
:100DA80005E0786800F029F9786800F03AF97B687E
:100DB80000221A777B681B681B6903F00103012B6B
:100DC8000ED17B681B68DB6803F00103012B07D198
:100DD8007B681B686FF001021A617868FFF772FD83
:100DE8007B681B681B6903F08003802B0ED17B682E
:100DF8001B68DB6803F08003802B07D17B681B68C6
:100E08006FF080021A61786800F0B2FA7B681B689C
:100E18001B6903F04003402B0ED17B681B68DB681D
:100E280003F04003402B07D17B681B686FF040023A
:100E38001A61786800F0FFF87B681B681B6903F08B
:100E48002003202B0ED17B681B68DB6803F020038E
:100E5800202B07D17B681B686FF020021A61786825
:100E680000F07CFA00BF0837BD4680BD80B584B06D
:100E780000AF786039600023FB737B6893F83C30DF
:100E8800012B01D10223B4E07B68012283F83C20C6
:100E98007B68022283F83D207B681B689B68BB60E7
:100EA800BB6823F07703BB60BB6823F47F43BB6058
:100EB8007B681B68BA689A603B681B68B3F5005F7B
:100EC8003ED0B3F5005F00F28780B3F5805F00F095
:100ED8008680B3F5805F7FD8702B1AD0702B7BD8B3
:100EE800602B50D0602B77D8502B3CD0502B73D828
:100EF800402B58D0402B6FD8302B64D0302B6BD878
:100F0800202B60D0202B67D8002B5CD0102B5AD018
:100F180062E07B6818683B6899683B685A683B6878
:100F2800DB6800F08DF97B681B689B68BB60BB6859
:100F380043F07703BB607B681B68BA689A604FE030
:100F48007B6818683B6899683B685A683B68DB6847
:100F580000F076F97B681B689A687B681B6842F426
:100F680080429A603CE07B6818683B6859683B6837
:100F7800DB681A4600F0EAF87B681B6850211846BF
:100F880000F043F92CE07B6818683B6859683B68B7
:100F9800DB681A4600F009F97B681B68602118466F
:100FA80000F033F91CE07B6818683B6859683B68B7
:100FB800DB681A4600F0CAF87B681B6840211846AF
:100FC80000F023F90CE07B681A683B681B68194637
:100FD800104600F01AF903E00123FB7300E000BF9C
:100FE8007B68012283F83D207B68002283F83C203F
:100FF800FB7B18461037BD4680BD80B483B000AF78
:10100800786000BF0C37BD465DF8047B704780B43C
:1010180083B000AF786000BF0C37BD465DF8047B35
:10102800704780B483B000AF786000BF0C37BD460E
:101038005DF8047B704780B483B000AF786000BF70
:101048000C37BD465DF8047B7047000080B485B05E
:1010580000AF786039607B681B68FB607B68344A46
:1010680093420FD07B68B3F1804F0BD07B68314A35
:10107800934207D07B68304A934203D07B682F4A5B
:10108800934208D1FB6823F07003FB603B685B6800
:10109800FA681343FB607B68254A93421BD07B6840
:1010A800B3F1804F17D07B68224A934213D07B68F4
:1010B800214A93420FD07B68204A93420BD07B6829
:1010C8001F4A934207D07B681E4A934203D07B682D
:1010D8001D4A934208D1FB6823F44073FB603B68C8
:1010E800DB68FA681343FB60FB6823F080023B6807
:1010F8005B691343FB607B68FA681A603B689A680F
:101108007B68DA623B681A687B689A627B68084A7F
:10111800934203D13B681A697B681A637B68012292
:101128005A6100BF1437BD465DF8047B704700BFA5
:10113800000001400004004000080040000C00408E
:1011480000400140004401400048014080B487B09D
:1011580000AFF860B9607A60FB681B6A7B61FB6866
:101168001B6A23F00102FB681A62FB689B693B61FA
:101178003B6923F0F0033B617B681B013A69134329
:101188003B617B6923F00A037B617A69BB6813437F
:101198007B61FB683A699A61FB687A691A6200BFE9
:1011A8001C37BD465DF8047B704780B487B000AF3C
:1011B800F860B9607A60FB681B6A23F01002FB686C
:1011C8001A62FB689B697B61FB681B6A3B617B69F0
:1011D80023F470437B617B681B037A6913437B614B
:1011E8003B6923F0A0033B61BB681B013A691343C9
:1011F8003B61FB687A699A61FB683A691A6200BFC9
:101208001C37BD465DF8047B704780B485B000AFDD
:10121800786039607B689B68FB60FB6823F070032B
:10122800FB603A68FB68134343F00703FB607B6885
:10123800FA689A6000BF1437BD465DF8047B7047B2
:1012480080B487B000AFF860B9607A603B60FB6833
:101258009B687B617B6923F47F437B613B681A024F
:101268007B681A43BB6813437A6913437B61FB6845
:101278007A699A6000BF1C37BD465DF8047B7047E9
:1012880080B485B000AF786039607B6893F83C30F3
:10129800012B01D1022350E07B68012283F83C2016
:1012A8007B68022283F83D207B681B685B68FB60D3
:1012B8007B681B689B68BB60FB6823F07003FB605E
:1012C8003B681B68FA681343FB607B681B68FA6815
:1012D8005A607B681B681C4A934218D07B681B685D
:1012E800B3F1804F13D07B681B68184A93420ED025
:1012F8007B681B68164A934209D07B681B68154AAD
:10130800934204D07B681B68134A93420CD1BB6894
:1013180023F08003BB603B685B68BA681343BB601B
:101328007B681B68BA689A607B68012283F83D2055
:101338007B68002283F83C20002318461437BD46FA
:101348005DF8047B704700BF0000014000040040C6
:1013580000080040000C00400040014080B483B009
:1013680000AF786000BF0C37BD465DF8047B70475E
:1013780080B483B000AF786000BF0C37BD465DF81D
:10138800047B704780B586B000AF78607B68002B1F
:1013980001D1012367E27B681B6803F00103002B7E
:1013A80075D0884B9B6803F00C03042B0CD0854B3D
:1013B8009B6803F00C03082B12D1824B5B6803F483
:1013C8008003B3F5800F0BD17E4B1B6803F4003309
:1013D800002B5BD07B685B68002B57D1012342E26E
:1013E8007B685B68B3F5803F06D1764B1B68754A0E
:1013F80043F4803313601DE07B685B68B3F5A02F6E
:101408000CD1704B1B686F4A43F4802313606D4BFB
:101418001B686C4A43F4803313600BE0694B1B680C
:10142800684A23F480331360664B1B68654A23F4CB
:10143800802313607B685B68002B13D000F00EFFDD
:10144800386108E000F00AFF02463B69D31A642BB2
:1014580001D9032307E25B4B1B6803F40033002B1D
:10146800F0D014E000F0FAFE386108E000F0F6FE73
:1014780002463B69D31A642B01D90323F3E1514B8C
:101488001B6803F40033002BF0D100E000BF7B6839
:101498001B6803F00203002B63D04A4B9B6803F0E0
:1014A8000C03002B0BD0474B9B6803F00C03082B55
:1014B8001CD1444B5B6803F48003002B16D1414BCD
:1014C8001B6803F00203002B05D07B68DB68012B47
:1014D80001D00123C7E13B4B1B6823F0F8027B686E
:1014E8001B69DB00374913430B603AE07B68DB6814
:1014F800002B20D0344B01221A6000F0AFFE386177
:1015080008E000F0ABFE02463B69D31A022B01D972
:101518000323A8E12B4B1B6803F00203002BF0D038
:10152800284B1B6823F0F8027B681B69DB00254900
:1015380013430B6015E0244B00221A6000F08EFE66
:10154800386108E000F08AFE02463B69D31A022B94
:1015580001D9032387E11B4B1B6803F00203002B0F
:10156800F0D17B681B6803F00803002B36D07B683A
:101578005B69002B16D0154B01221A6000F06EFE35
:10158800386108E000F06AFE02463B69D31A022B74
:1015980001D9032367E10B4B5B6F03F00203002BB8
:1015A800F0D01BE0094B00221A6000F057FE3861AA
:1015B8000EE000F053FE02463B69D31A022B07D90E
:1015C800032350E10038024000004742800E4742A2
:1015D800884B5B6F03F00203002BEAD17B681B6822
:1015E80003F00403002B00F097800023FB75814B68
:1015F8001B6C03F08053002B0FD10023BB607D4B85
:101608001B6C7C4A43F0805313647A4B1B6C03F0C9
:101618008053BB60BB680123FB75774B1B6803F4E1
:101628008073002B18D1744B1B68734A43F4807382
:10163800136000F013FE386108E000F00FFE024668
:101648003B69D31A022B01D903230CE16A4B1B68AF
:1016580003F48073002BF0D07B689B68012B06D1C4
:10166800644B1B6F634A43F0010313671CE07B68FC
:101678009B68052B0CD15F4B1B6F5E4A43F004033C
:1016880013675C4B1B6F5B4A43F0010313670BE066
:10169800584B1B6F574A23F001031367554B1B6FB9
:1016A800544A23F0040313677B689B68002B15D00A
:1016B80000F0D4FD38610AE000F0D0FD02463B6935
:1016C800D31A41F28832934201D90323CBE0494B24
:1016D8001B6F03F00203002BEED014E000F0BEFDF8
:1016E80038610AE000F0BAFD02463B69D31A41F2BC
:1016F8008832934201D90323B5E03E4B1B6F03F0B8
:101708000203002BEED1FB7D012B05D1394B1B6C5D
:10171800384A23F0805313647B689B69002B00F0E0
:10172800A180344B9B6803F00C03082B5CD07B68CA
:101738009B69022B41D1314B00221A6000F08EFDCB
:10174800386108E000F08AFD02463B69D31A022B93
:1017580001D9032387E0274B1B6803F00073002B94
:10176800F0D17B68DA697B681B6A1A437B685B6A1D
:101778009B011A437B689B6A5B08013B1B041A4365
:101788007B68DB6A1B061B4913434B601B4B01221A
:101798001A6000F063FD386108E000F05FFD024662
:1017A8003B69D31A022B01D903235CE0114B1B6858
:1017B80003F00073002BF0D054E0104B00221A60A5
:1017C80000F04CFD386108E000F048FD02463B6936
:1017D800D31A022B01D9032345E0064B1B6803F0FB
:1017E8000073002BF0D13DE07B689B69012B07D18A
:1017F800012338E000380240007000406000474292
:101808001B4B5B68FB607B689B69012B28D0FB68DE
:1018180003F480027B68DB699A4221D1FB6803F0FC
:101828003F027B681B6A9A421AD1FA6847F6C0736E
:1018380013407A68526A9201934211D1FB6803F40B
:1018480040327B689B6A5B08013B1B049A4207D1C4
:10185800FB6803F070627B68DB6A1B069A4201D062
:10186800012300E0002318461837BD4680BD00BF9D
:101878000038024080B584B000AF786039607B687A
:10188800002B01D10123CCE0684B1B6803F0070350
:101898003A689A420CD9654B3A68D2B21A70634BCF
:1018A8001B6803F007033A689A4201D00123B8E0A5
:1018B8007B681B6803F00203002B20D07B681B6841
:1018C80003F00403002B05D0594B9B68584A43F496
:1018D800E05393607B681B6803F00803002B05D076
:1018E800534B9B68524A43F460439360504B9B6848
:1018F80023F0F0027B689B684D4913438B607B683B
:101908001B6803F00103002B44D07B685B68012B44
:1019180007D1474B1B6803F40033002B19D101236F
:101928007FE07B685B68022B03D07B685B68032BD6
:1019380007D13F4B1B6803F00073002B09D101232B
:101948006FE03B4B1B6803F00203002B01D101231E
:1019580067E0374B9B6823F003027B685B68344978
:1019680013438B6000F07AFCF8600AE000F076FC24
:101978000246FB68D31A41F28832934201D9032305
:101988004FE02B4B9B6803F00C027B685B689B0065
:101998009A42EBD1254B1B6803F007033A689A4239
:1019A8000CD2224B3A68D2B21A70204B1B6803F053
:1019B80007033A689A4201D0012332E07B681B682A
:1019C80003F00403002B08D0194B9B6823F4E05262
:1019D8007B68DB68164913438B607B681B6803F0E0
:1019E8000803002B09D0124B9B6823F460427B68E4
:1019F8001B69DB000E4913438B6000F021F8024697
:101A08000B4B9B681B0903F00F030A49CB5C22FAB6
:101A180003F3094A1360094B1B68184600F0DAFB08
:101A2800002318461037BD4680BD00BF003C024069
:101A380000380240AC2300080C00002004000020FD
:101A48002DE9B04F90B000AF00237B630023FB6308
:101A580000233B630023BB63594B9B6803F00C03D3
:101A6800082B0DD0082B00F2A180002B02D0042BEC
:101A780003D09BE0534BBB639BE0534BBB6398E0A5
:101A88004F4B5B6803F03F037B634D4B5B6803F48C
:101A98008003002B28D04A4B5B689B0900223B62DD
:101AA8007A623B6AC3F308000021474B03FB01F24B
:101AB800002300FB03F31344434AA0FB0212FA621B
:101AC8000A46BA62FA6A1344FB627B6B0022BB6166
:101AD800FA61D7E90623D7E90A01FEF779FB02463E
:101AE8000B461346FB6353E0354B5B689B090022AA
:101AF8003B617A613B69C3F3080A4FF0000B524619
:101B08005B464FF000004FF00001590141EAD261F5
:101B1800500102460B46B2EB0A0863EB0B094FF083
:101B280000024FF000034FEA891343EA98634FEA33
:101B38008812B2EB080463EB09054FF000024FF07E
:101B48000003EB0043EA5473E20014461D4614EB0D
:101B58000A033B6045EB0B037B604FF000024FF03C
:101B68000003D7E9004529468B02214643EA9153F1
:101B780021468A02104619467B6B0022BB60FA6038
:101B8800D7E90223FEF724FB02460B461346FB6304
:101B98000B4B5B681B0C03F0030301335B003B63D7
:101BA800FA6B3B6BB2FBF3F3BB6302E0054BBB6321
:101BB80000BFBB6B18464037BD46BDE8B08F00BFBD
:101BC800003802400024F40040787D0180B489B0D8
:101BD80000AF7860396000237B6100233B610023FC
:101BE800BB610023FB6159E10122FB6902FA03F39F
:101BF8007B613B681B687A6913403B613A697B6982
:101C08009A4240F048813B685B6803F00303012B6C
:101C180005D03B685B6803F00303022B30D17B6877
:101C28009B68BB61FB695B00032202FA03F3DB4399
:101C3800BA691340BB613B68DA68FB695B0002FA6A
:101C480003F3BA691343BB617B68BA699A607B681E
:101C58005B68BB610122FB6902FA03F3DB43BA69E3
:101C68001340BB613B685B681B0903F00102FB6919
:101C780002FA03F3BA691343BB617B68BA695A6015
:101C88003B685B6803F00303032B17D07B68DB68B2
:101C9800BB61FB695B00032202FA03F3DB43BA6909
:101CA8001340BB613B689A68FB695B0002FA03F367
:101CB800BA691343BB617B68BA69DA603B685B68E1
:101CC80003F00303022B23D1FB69DA087B6808328F
:101CD80053F82230BB61FB6903F007039B000F2216
:101CE80002FA03F3DB43BA691340BB613B681A6924
:101CF800FB6903F007039B0002FA03F3BA69134375
:101D0800BB61FB69DA087B680832B96943F82210BD
:101D18007B681B68BB61FB695B00032202FA03F363
:101D2800DB43BA691340BB613B685B6803F003029D
:101D3800FB695B0002FA03F3BA691343BB617B6872
:101D4800BA691A603B685B6803F44033002B00F003
:101D5800A2800023FB60574B5B6C564A43F48043D8
:101D68005364544B5B6C03F48043FB60FB68524A3A
:101D7800FB699B08023352F82330BB61FB6903F00F
:101D880003039B000F2202FA03F3DB43BA691340F3
:101D9800BB617B68494A934219D07B68484A9342A1
:101DA80013D07B68474A93420DD07B68464A9342DA
:101DB80007D07B68454A934201D1042308E00723F2
:101DC80006E0032304E0022302E0012300E00023ED
:101DD800FA6902F0030292009340BA691343BB61A7
:101DE8003549FB699B080233BA6941F82320384B0F
:101DF8009B68BB613B69DB43BA691340BB613B68C5
:101E08005B6803F48013002B03D0BA693B69134362
:101E1800BB612F4ABB6993602D4BDB68BB613B6993
:101E2800DB43BA691340BB613B685B6803F400138A
:101E3800002B03D0BA693B691343BB61244ABB69D1
:101E4800D360234B5B68BB613B69DB43BA691340D2
:101E5800BB613B685B6803F40033002B03D0BA69AD
:101E68003B691343BB611A4ABB695360184B1B6833
:101E7800BB613B69DB43BA691340BB613B685B6884
:101E880003F48033002B03D0BA693B691343BB6169
:101E98000F4ABB691360FB690133FB61FB690F2BB8
:101EA8007FF6A2AE00BF00BF2437BD465DF8047BB5
:101EB800704700BF0038024000380140000002406F
:101EC8000004024000080240000C024000100240DA
:101ED800003C014080B485B000AF78600B467B8041
:101EE8007B681A697B881340002B02D00123FB739F
:101EF80001E00023FB73FB7B18461437BD465DF8F1
:101F0800047B704780B483B000AF78600B467B8059
:101F180013467B707B78002B03D07A887B689A61A4
:101F280003E07B881A047B689A6100BF0C37BD46C2
:101F38005DF8047B704780B485B000AF78600B46CD
:101F48007B807B685B69FB607A88FB6813401A04B6
:101F5800FB68D9437B880B401A437B689A6100BFB2
:101F68001437BD465DF8047B7047000080B485B027
:101F780000AF78607B6803F00703FB600C4BDB68FD
:101F8800BB60BA684FF6FF031340BB60FB681A02D8
:101F9800BB68134343F0BF6343F40033BB60044A98
:101FA800BB68D36000BF1437BD465DF8047B70473B
:101FB80000ED00E080B400AF044BDB681B0A03F0BF
:101FC80007031846BD465DF8047B704700ED00E046
:101FD80080B483B000AF0346FB7197F90730002B3C
:101FE8000BDBFB7903F01F02074997F907305B0900
:101FF800012000FA02F241F8232000BF0C37BD4649
:102008005DF8047B704700BF00E100E080B483B056
:1020180000AF03463960FB7197F90730002B0ADBE4
:102028003B68DAB20C4997F907301201D2B20B4477
:1020380083F800230AE03B68DAB20849FB7903F029
:102048000F03043B1201D2B20B441A7600BF0C37BF
:10205800BD465DF8047B704700E100E000ED00E05C
:1020680080B489B000AFF860B9607A60FB6803F0AB
:102078000703FB61FB69C3F10703042B28BF042393
:10208800BB61FB690433062B02D9FB69033B00E003
:1020980000237B614FF0FF32BB6902FA03F3DA4396
:1020A800BB681A407B699A404FF0FF317B6901FA9F
:1020B80003F3D9437B680B40134318462437BD46C6
:1020C8005DF8047B7047000080B582B000AF78608F
:1020D8007B68013BB3F1807F01D301230FE00A4AFB
:1020E8007B68013B53600F214FF0FF30FFF78EFFF5
:1020F800054B00229A60044B07221A6000231846F9
:102108000837BD4680BD00BF10E000E080B582B052
:1021180000AF78607868FFF729FF00BF0837BD4631
:1021280080BD80B586B000AF0346B9607A60FB73A6
:1021380000237B61FFF73EFF78617A68B9687869A8
:10214800FFF78EFF024697F90F3011461846FFF742
:102158005DFF00BF1837BD4680BD80B582B000AFB7
:102168000346FB7197F907301846FFF731FF00BFA8
:102178000837BD4680BD80B582B000AF786078680A
:10218800FFF7A2FF034618460837BD4680BD00008A
:1021980080B500AF0E4B1B680D4A43F40073136003
:1021A8000B4B1B680A4A43F480631360084B1B6897
:1021B800074A43F4807313600320FFF7A7FF0F203B
:1021C80000F008F8FEF748FC0023184680BD00BF61
:1021D800003C024080B582B000AF7860124B1A68AC
:1021E800124B1B7819464FF47A73B3FBF1F3B2FB29
:1021F800F3F31846FFF7BFFF0346002B01D0012376
:102208000EE07B680F2B0AD8002279684FF0FF3068
:10221800FFF787FF064A7B681360002300E001236D
:1022280018460837BD4680BD0C0000200800002075
:102238000400002080B400AF064B1B781A46064BFA
:102248001B681344044A136000BFBD465DF8047B55
:10225800704700BF080000207400002080B400AF61
:10226800034B1B681846BD465DF8047B704700BFEA
:102278007400002080B584B000AF7860FFF7EEFFEF
:10228800B8607B68FB60FB68B3F1FF3F05D00A4B81
:102298001B781A46FB681344FB6000BFFFF7DEFF9C
:1022A8000246BB68D31AFA689A42F7D800BF00BF43
:1022B8001037BD4680BD00BF0800002080B400AFC5
:1022C800064BD3F88830054A43F47003C2F88830C7
:1022D80000BFBD465DF8047B704700BF00ED00E01D
:1022E800DFF834D00D480E490E4A002302E0D458D6
:1022F800C4500433C4188C42F9D30B4A0B4C002346
:1023080001E013600432A242FBD3FFF7D7FF00F0CD
:1023180019F8FEF7D5F870470000022000000020E9
:1023280010000020CC2300081000002078000020B6
:10233800FEE702440346934200D1704703F8011BAD
:10234800F9E7000070B50D4D0D4C641BA410002674
:10235800A64209D10B4D0C4C00F018F8641BA410D0
:102368000026A64205D170BD55F8043B98470136B2
:10237800EEE755F8043B98470136F2E7C423000816
:10238800C4230008C4230008C8230008F8B500BF08
:10239800F8BC08BC9E467047F8B500BFF8BC08BC3E
:0423A8009E46704796
:1023AC0000000000000000000102030406070809F9
:0823BC004CDEFF7F0100000070
:0423C400BD0100084F
:0423C800990100086F
:1023CC001F00000010000000010000000024F400B9
:04000005080022E9E4
:00000001FF
